:020000040800F2
:100000004004002049010008D503000867020008E9
:10001000D3030008BD010008D50700080000000058
:1000200000000000000000000000000015050008AE
:10003000BF01000800000000510400082906000864
:100040006301000863010008630100086301000800
:1000500063010008630100086301000863010008F0
:1000600063010008630100086301000863010008E0
:1000700063010008630100086301000863010008D0
:1000800063010008630100086301000863010008C0
:1000900063010008630100086301000863010008B0
:1000A00063010008630100086301000863010008A0
:1000B0006301000863010008630100086301000890
:1000C0006301000863010008630100086301000880
:1000D000630100089D060008630100086301000831
:1000E0006301000863010008630100086301000860
:1000F0006301000863010008630100086301000850
:10010000630100086301000863010008630100083F
:10011000630100086301000863010008630100082F
:10012000630100086301000863010008630100081F
:10013000DFF810D000F030F800480047190C000834
:10014000AFF300804004002006488047064800477F
:10015000FEE7FEE7FEE7FEE7FEE7FEE7FEE7FEE777
:10016000FEE7FEE74D0600083101000830B50B46FA
:10017000014600202022012409E021FA02F59D42D7
:1001800005D303FA02F5491B04FA02F52844151EAB
:10019000A2F10102F1DC30BD064C074D06E0E0683B
:1001A00040F0010394E8070098471034AC42F6D3BE
:1001B000FFF7C2FF900D0008B00D0008FEE7704782
:1001C000F0B5CA78002502F00F03D20601D58A786F
:1001D00013430A784FF00F0E12F0FF0F4FF0010299
:1001E0001CD004680F8802FA05F63740B74211D1D7
:1001F0004FEA850C0EFA0CF724EA070703FA0CF411
:100200003C43CF78282F02D0482F02D002E046612D
:1002100000E006616D1C082DE4D304600C88FF2CFF
:100220001ED944685FF0000606F1080702FA07F5D8
:100230000F882F40AF420FD14FEA860C0EFA0CF711
:10024000BC4303FA0CF73C43CF78282F00D145611B
:10025000CF78482F00D10561761C082EE4D3446086
:10026000F0BD01617047FEE70029018802D041F42A
:10027000806101E021F48061018070470246002026
:10028000938A128B43EA024323F07F42914300D1C9
:10029000012070470029018802D041F0010101E0EE
:1002A00021F00101018070470029018802D041F44A
:1002B000807101E021F4807101807047002901887C
:1002C00002D041F4007101E021F400710180704717
:1002D0000CB50246002000920A0F21F07F410192E6
:1002E00002D0009A143202E0009A090C18320092EF
:1002F00012680A4200D001200CBD000070B504460F
:10030000808886B00D4620F03F06684600F0BAF8B7
:1003100027490298B0FBF1F189B20E43A6802288EA
:1003200022F001022280234B2A689A421CD85200F4
:10033000B0FBF2F080B2042800D20420491C2184D2
:10034000A083208840F00100208021884FF6F530FE
:100350000140A8886A89104308432080A889298918
:100360000843208106B070BDEB88A3F53F46FF3EF1
:100370000BD002EBC20303EB0212B0FBF2F080B22F
:1003800040F48040020506D007E002EB4202B0FBD9
:10039000F2F080B2F6E740F001004FF4967251435C
:1003A0004FF47A72B1FBF2F140F40040C6E700006E
:1003B00040420F00A0860100008AC0B2704712B10F
:1003C00041F0010101E001F0FE010182704701826C
:1003D0007047FEE77047000070B50F23C4780178BE
:1003E0000122F4B1144C2468457804F4E064C4F5A7
:1003F000E064240AC4F10406E3408478B5401C405C
:100400002C4301F1E021230181F80034007800F051
:100410001F018A404009800000F1E020C0F800215F
:1004200070BD01F01F0082404809800000F1E0200B
:10043000C0F8802170BD00000CED00E002490843C7
:1004400002490860704700000000FA050CED00E06A
:1004500070470000044A0029D16901D0014300E03F
:100460008143D1617047000000100240044A002916
:10047000916901D0014300E0814391617047000020
:100480000010024030B51F494A6812F00C031E4AA2
:1004900003D0042B01D0082B21D002604A680F231F
:1004A0001A4C03EA1212A35C0268DA4042604B68FD
:1004B000072505EA1323E35C22FA03F383604B6804
:1004C00005EAD323E35CDA40C2604968032303EA08
:1004D0009131231F595CB2FBF1F1016130BD4A68D3
:1004E0004B6802F470124FF0020413F4803F04EBE7
:1004F000924202D04B689B0301D5054B00E0024BB2
:100500005A43CAE70010024000127A001800002087
:1005100000093D00704700000CB5002126480191FC
:100520000091026842F4803202604FF4A0630268D6
:1005300002F400320092019A521C0192009A12B900
:10054000019A9A42F3D10268920333D501210091B6
:100550001A490A6842F010020A600A6822F003028F
:100560000A600A6842F002020A604168416041681C
:100570004160416841F480614160416821F47C112F
:100580004160416841F4E8114160016841F08071C7
:10059000016001688901FCD5416821F003014160D7
:1005A000416841F0020141604168C1F381010229C3
:1005B000FAD10CBD00910CBD001002400020024099
:1005C000B0F1807F01D30120704720F07F414FF0D0
:1005D000E020491E4161054AF02182F8141D0021E6
:1005E0008161072101610020704700000FE000E0F9
:1005F00001B50C484FF47A710068B0FBF1F0FFF7D9
:10060000DFFF00204FF0E02103E00A69D203FCD5B0
:10061000401C009A9042F8D3086920F0010008615C
:1006200008BD00000000002070470000054810B51C
:1006300000680549B0FBF1F0FFF7C2FF002800D0C9
:10064000FEE710BD00000020A08601000F4810B595
:10065000016841F00101016041680D4A11404160AB
:1006600001680C4A11400160016821F48021016099
:10067000416821F4FE0141604FF41F018160FFF7E2
:100680004BFF05494FF00060086010BD00100240AC
:100690000000FFF8FFFFF6FE08ED00E010B5084C83
:1006A0002021204600F018F8002808D0204600F04D
:1006B00089F8C1B22046BDE8104000F087B810BDEF
:1006C000003801400029818902D041F4005101E045
:1006D00021F40051818170470246002012880A42AD
:1006E00000D00120704710B5C1F3421301F01F0480
:1006F0000121A140012B07D0022B07D01430002A82
:10070000026805D00A4304E00C30F8E71030F6E741
:100710008A43026010BD000030B50446008A85B0EF
:100720000D464CF6FF710840E98801432182A189FA
:100730004EF6F3100140A8882A8910436A890A43BB
:100740001043A081A08A4FF6FF410840A9890143C8
:10075000A1826846FFF796FE1948844201D10398AA
:1007600000E00298A189090400EBC00101EB001030
:10077000296801D5490000E08900B0FBF1F064224E
:10078000B0FBF2F109010B096FF018056B4300EBA8
:100790008300A3891D044FF0320306D503EBC0008C
:1007A000B0FBF2F000F0070005E003EB0010B0FB37
:1007B000F2F000F00F000843208105B030BD0000CA
:1007C000003801408088C0F308007047C1F3080179
:1007D00081807047FEE700000FB4054B10B503A9F8
:1007E000044A029800F018F810BC5DF814FB0000F1
:1007F000110B00083000002002E008C8121F08C1D9
:10080000002AFAD170477047002001E001C1121F91
:10081000002AFBD1704700002DE9FF4F89B09B46AD
:100820000446002506E025280BD05A460B99904730
:10083000641C6D1C20780028F5D10DB02846BDE859
:10084000F08F0027B8460122474900E0074314F81B
:10085000013F203B02FA03F00842F7D120782E280E
:1008600019D114F8010F47F004072A280ED06FF0B1
:100870002F022078A0F1300109290CD808EB88015B
:1008800002EB410100EB0108641CF2E70A98641CCA
:1008900050F8048B0A9020780028CED0642808D025
:1008A000692806D075281ED05A460B9990476D1CB2
:1008B00058E00A994FF00A0901C90A91002802DAA2
:1008C00040422D2102E0390504D52B218DF820105E
:1008D000012103E0F90704D02021F7E78A4608AE9A
:1008E0000DE00021FAE70A994FF00A0901C90A91BF
:1008F000F7E74946FFF73AFC303106F8011D0028BA
:10090000F7D1ADEB060000F12009780701D44FF0D4
:100910000108C84502DDA8EB090000E00020804680
:10092000002706E008A85A46C05D0B9990476D1C49
:100930007F1C5745F6DB04E030205A460B99904760
:100940006D1CB8F10001A8F10108F5DC05E016F80E
:10095000010B5A460B9990476D1CB9F10001A9F1A2
:100960000109F4DC641C65E7092801002DE9F04762
:10097000304C0E468146154601212046FFF794FC77
:100980002D4F20463946FFF779FC0028F9D0002288
:10099000A0212046FFF713FDDFF8A0802046414646
:1009A000FFF76CFC0028F9D049462046FFF70FFD01
:1009B000DFF88880A8F1020841462046FFF75EFC78
:1009C0000028F9D001212046FFF76EFC3946204669
:1009D000FFF754FC0028F9D00122A0212046FFF7A0
:1009E000EEFC154F7F1C39462046FFF747FC0028D8
:1009F000F9D0114F3F379DB1012D03D10021204681
:100A0000FFF732FC39462046FFF738FC0028F9D0C2
:100A10002046FFF7D1FC6D1E06F8010BEDB2EAE7A8
:100A200001212046FFF74AFC2046BDE8F04701219E
:100A3000FFF71ABC005400400100030082000700C9
:100A40002DE9F0411D4C0E468046154601212046F9
:100A5000FFF72AFC1A4F20463946FFF70FFC002803
:100A6000F9D00022A0212046FFF7A9FC154F20460F
:100A70003946FFF703FC0028F9D041462046FFF72E
:100A8000A6FC104FBF1E39462046FFF7F7FB002893
:100A9000F9D00AE016F8011B2046FFF798FC39460A
:100AA0002046FFF7EBFB0028F9D06D1EEDB2F1D226
:100AB0002046BDE8F0410121FFF700BC0054004092
:100AC000010003008200070070B50F4D0F4C6E1C33
:100AD00001212046FFF7E8FB29462046FFF7F8FBF7
:100AE0000028F9D00022A0212046FFF768FC3146FB
:100AF0002046FFF7EDFB0028EAD02046BDE8704015
:100B00000121FFF7DBBB0000010000100054004092
:100B100070B5074D0446C1B22846FFF757FE802145
:100B20002846FFF7D9FD0028F9D0204670BD000007
:100B30000038014010B586B001210820FFF796FC6F
:100B400001214805FFF786FC4020ADF810001C206D
:100B50008DF813000320154C8DF8120004A92046CF
:100B6000FFF72EFB8020ADF8100004A92046FFF708
:100B700027FB2015ADF80A000001ADF80C000C4869
:100B800000904BF6FF70ADF806000020ADF80400B1
:100B90000A20084CADF8080069462046FFF7AEFB76
:100BA00001212046FFF776FB06B010BD000C014086
:100BB000801A06000054004038B501210820FFF7D4
:100BC00055FC2020ADF8000010208DF80300032014
:100BD000104C8DF8020069462046FFF7F1FA01201B
:100BE000ADF8000069462046FFF7EAFA0220ADF8AA
:100BF000000069462046FFF7E3FA20212046FFF770
:100C000030FB01212046FFF72CFB02212046FFF795
:100C100028FB38BD000C0140FFF708FDFFF7CCFFB3
:100C200000F05EF8FFF786FF15A0FFF7D5FD1A4D1F
:100C300000241AA0295DFFF7CFFD641C082CF8DB07
:100C400008221D490020FFF7FBFEFFF73DFF0822A9
:100C500011490020FFF78AFE002418A0295DFFF744
:100C6000BBFD641C082CF8DB1C4C4FF47A75206823
:100C700080F0020020602846FFF7BAFCF7E700008A
:100C8000D5E2CAC7D2BBB8F6696963B2E2CAD4B3C7
:100C9000CCD0F20D0A00000034000020D0B4D6AE53
:100CA000C7B0726561645F62756666CAFDBEDDCEFF
:100CB000AAA3BA25640D0A00280000200D0AD0B4AA
:100CC000D6AEBAF3726561645F62756666CAFDBED0
:100CD000DDCEAAA3BA25640D0A0000000C0C014069
:100CE00030B587B001210420FFF7C0FB0121880344
:100CF000FFF7BCFB4FF40070ADF8100018208DF822
:100D000013000320204C8DF8120004A92046FFF7A1
:100D100057FA2015ADF8100004208DF8130004A92F
:100D20002046FFF74DFA4FF4E130002400900C20EC
:100D3000ADF80A00154DADF80640ADF80C40ADF821
:100D40000840ADF8044069462846FFF7E5FC01215C
:100D50002846FFF7B7FC4FF4A060FFF76FFB252094
:100D60008DF8140001208DF817008DF815408DF8CE
:100D7000164005A8FFF730FB012240F22551284616
:100D8000FFF7B1FC07B030BD00080140003801405A
:100D9000B00D00080000002034000000F807000833
:100DA000E40D0008340000200C04000008080008CE
:100DB00000A24A0400000000000000000102030439
:100DC00006070809020406080000000001020304E7
:100DD00001020304060708090102030405060708C7
:040DE000000000000F
:0400000508000131BD
:00000001FF
