:020000040800F2
:1000000018040020490100085F0200085B02000894
:100010005D02000891010008C10300080000000013
:100020000000000000000000000000007D02000849
:100030009301000800000000610200085903000855
:100040006301000863010008630100086301000800
:1000500063010008630100086301000863010008F0
:1000600063010008630100086301000863010008E0
:1000700063010008630100086301000863010008D0
:1000800063010008630100086301000863010008C0
:1000900063010008630100086301000863010008B0
:1000A00063010008630100086301000863010008A0
:1000B0006301000863010008630100086301000890
:1000C0006301000863010008630100086301000880
:1000D0006301000863010008630100086301000870
:1000E0006301000863010008630100086301000860
:1000F0006301000863010008630100086301000850
:10010000630100086301000863010008630100083F
:10011000630100086301000863010008630100082F
:10012000630100086301000863010008630100081F
:10013000DFF810D000F01AF800480047410400082A
:10014000AFF30080180400200648804706480047A7
:10015000FEE7FEE7FEE7FEE7FEE7FEE7FEE7FEE777
:10016000FEE7FEE75D03000831010008064C074D7D
:1001700006E0E06840F0010394E807009847103477
:10018000AC42F6D3FFF7D8FF84040008A4040008AB
:10019000FEE7704701B50648009901604FF0E02185
:1001A0000A6942F001020A6101680029FCD108BD18
:1001B00014000020F0B5CA78002502F00F03D20623
:1001C00001D58A7813430A784FF00F0E12F0FF0F13
:1001D0004FF001021CD004680F8802FA05F6374080
:1001E000B74211D14FEA850C0EFA0CF724EA070743
:1001F00003FA0CF43C43CF78282F02D0482F02D0CA
:1002000002E0466100E006616D1C082DE4D3046045
:100210000C88FF2C1ED944685FF0000606F1080721
:1002200002FA07F50F882F40AF420FD14FEA860C34
:100230000EFA0CF7BC4303FA0CF73C43CF78282F97
:1002400000D14561CF78482F00D10561761C082E7A
:10025000E4D34460F0BD01617047FEE7FEE77047FC
:1002600070470000044A0029916901D0014300E071
:100270008143916170470000001002407047000008
:100280000CB50021264801910091026842F48032A9
:1002900002604FF4A063026802F400320092019AF7
:1002A000521C0192009A12B9019A9A42F3D1026843
:1002B000920333D5012100911A490A6842F01002D5
:1002C0000A600A6822F003020A600A6842F0020229
:1002D0000A604168416041684160416841F4806161
:1002E0004160416821F47C114160416841F4E811AA
:1002F0004160016841F08071016001688901FCD5AD
:10030000416821F003014160416841F00201416010
:100310004168C1F381010229FAD10CBD00910CBDE5
:100320000010024000200240B0F1807F01D3012084
:10033000704720F07F414FF0E020491E4161054A9F
:10034000F02182F8141D0021816107210161002044
:10035000704700000FE000E000F028B80F4810B52B
:10036000016841F00101016041680D4A114041609E
:1003700001680C4A11400160016821F4802101608C
:10038000416821F4FE0141604FF41F018160FFF7D5
:1003900077FF05494FF00060086010BD0010024073
:1003A0000000FFF8FFFFF6FE08ED00E003480168DB
:1003B000002902D00168491E016070471400002026
:1003C000FEE702E008C8121F08C1002AFAD17047F0
:1003D0007047002001E001C1121F002AFBD17047C5
:1003E00038B501210820FFF73DFF2020ADF80000BF
:1003F00010208DF803000320104C8DF80200694690
:100400002046FFF7D7FE0120ADF8000069462046E0
:10041000FFF7D0FE0220ADF8000069462046FFF746
:10042000C9FE20212046FFF716FF01212046FFF7D5
:1004300012FF02212046FFF70EFF38BD000C0140DD
:10044000FFF7CEFF00F00EF8054C4CF25035206857
:1004500080F0020020602846FFF79CFEF7E70000CE
:100460000C0C0140054810B500680549B0FBF1F0DF
:10047000FFF75AFF002800D0FEE710BD0000002063
:10048000A0860100A404000800000020180000005D
:10049000C2030008BC04000818000020000400008B
:1004A000D203000800A24A0400000000000000007F
:0C04B00001020304060708090000000018
:0400000508000131BD
:00000001FF
