:020000040800F2
:100000003804002049010008EF0200088B020008B4
:10001000ED020008910100080D0600080000000034
:10002000000000000000000000000000B503000810
:10003000E301000800000000F1020008C904000804
:100040006301000863010008630100086301000800
:1000500063010008630100086301000863010008F0
:1000600063010008630100086301000863010008E0
:1000700063010008630100086301000863010008D0
:1000800063010008630100086301000863010008C0
:1000900063010008630100086301000863010008B0
:1000A00063010008630100086301000863010008A0
:1000B0006301000863010008630100086301000890
:1000C0006301000863010008630100086301000880
:1000D0006301000863010008630100086301000870
:1000E0006301000863010008630100086301000860
:1000F0006301000863010008630100086301000850
:10010000630100086301000863010008630100083F
:10011000630100086301000863010008630100082F
:10012000630100086301000863010008630100081F
:10013000DFF810D000F01AF8004800472D0600083C
:10014000AFF3008038040020064880470648004787
:10015000FEE7FEE7FEE7FEE7FEE7FEE7FEE7FEE777
:10016000FEE7FEE7ED04000831010008064C074DEC
:1001700006E0E06840F0010394E807009847103477
:10018000AC42F6D3FFF7D8FF40070008600700082D
:10019000FEE70029016802D041F0010102E04FF6BC
:1001A000FE7211400160704730B5036847F6F07287
:1001B00093430C6A8A682243D1E904452C432243C5
:1001C0008C692243CC6922434C6A22438C6A2243C5
:1001D0001A430260CA6842600A6882604968C16066
:1001E00030BD7047F0B5CA78002502F00F03D20683
:1001F00001D58A7813430A784FF00F0E12F0FF0FE3
:100200004FF001021CD004680F8802FA05F637404F
:10021000B74211D14FEA850C0EFA0CF724EA070712
:1002200003FA0CF43C43CF78282F02D0482F02D099
:1002300002E0466100E006616D1C082DE4D3046015
:100240000C88FF2C1ED944685FF0000606F10807F1
:1002500002FA07F50F882F40AF420FD14FEA860C04
:100260000EFA0CF7BC4303FA0CF73C43CF78282F67
:1002700000D14561CF78482F00D10561761C082E4A
:10028000E4D34460F0BD01617047FEE738B5012159
:10029000082000F03BF82020ADF8000010208DF879
:1002A00003000320104C8DF8020069462046FFF73A
:1002B00099FF0120ADF8000069462046FFF792FF44
:1002C0000220ADF8000069462046FFF78BFF202191
:1002D0002046FFF7D8FF01212046FFF7D4FF022177
:1002E0002046FFF7D0FF38BD000C0140FEE7704705
:1002F00070470000044A0029516901D0014300E021
:10030000814351617047000000100240044A0029F7
:10031000916901D0014300E0814391617047000081
:100320000010024030B51F494A6812F00C031E4A03
:1003300003D0042B01D0082B21D002604A680F2380
:100340001A4C03EA1212A35C0268DA4042604B685E
:10035000072505EA1323E35C22FA03F383604B6865
:1003600005EAD323E35CDA40C2604968032303EA69
:100370009131231F595CB2FBF1F1016130BD4A6834
:100380004B6802F470124FF0020413F4803F04EB48
:10039000924202D04B689B0301D5054B00E0024B13
:1003A0005A43CAE70010024000127A0018000020E9
:1003B00000093D00704700000CB50021264801915E
:1003C0000091026842F4803202604FF4A063026838
:1003D00002F400320092019A521C0192009A12B962
:1003E000019A9A42F3D10268920333D50121009118
:1003F0001A490A6842F010020A600A6822F00302F1
:100400000A600A6842F002020A604168416041687D
:100410004160416841F480614160416821F47C1190
:100420004160416841F4E8114160016841F0807128
:10043000016001688901FCD5416821F00301416038
:10044000416841F0020141604168C1F38101022924
:10045000FAD10CBD00910CBD0010024000200240FA
:10046000B0F1807F01D30120704720F07F414FF031
:10047000E020491E4161054AF02182F8141D002147
:100480008161072101610020704700000FE000E05A
:1004900001B50C484FF47A710068B0FBF1F0FFF73A
:1004A000DFFF00204FF0E02103E00A69D203FCD512
:1004B000401C009A9042F8D3086920F001000861BE
:1004C00008BD00000000002070470000054810B57E
:1004D00000680549B0FBF1F0FFF7C2FF002800D02B
:1004E000FEE710BD00000020A08601000F4810B5F7
:1004F000016841F00101016041680D4A114041600D
:1005000001680C4A11400160016821F480210160FA
:10051000416821F4FE0141604FF41F018160FFF743
:100520004BFF05494FF00060086010BD001002400D
:100530000000FFF8FFFFF6FE08ED00E000298189CA
:1005400002D041F4005101E021F400518181704753
:10055000002A828A01D00A4300E08A4382827047DF
:1005600030B50446008A85B00D464CF6FF71084050
:10057000E98801432182A1894EF6F3100140A88841
:100580002A8910436A890A431043A081A08A4FF642
:10059000FF410840A9890143A1826846FFF7C2FED6
:1005A0001948844201D1039800E00298A189090406
:1005B00000EBC00101EB0010296801D5490000E003
:1005C0008900B0FBF1F06422B0FBF2F109010B09E4
:1005D0006FF018056B4300EB8300A3891D044FF0F7
:1005E000320306D503EBC000B0FBF2F000F00700C9
:1005F00005E003EB0010B0FBF2F000F00F00084341
:10060000208105B030BD000000380140FEE702E067
:1006100008C8121F08C1002AFAD17047704700208D
:1006200001E001C1121F002AFBD17047FFF74EFF06
:10063000FFF72CFE00F010F800F050F8054C4FF4D6
:100640007A75206880F0020020602846FFF720FFBE
:10065000F7E700000C0C014010B586B00121042022
:10066000FFF754FE01218803FFF750FE4FF400709E
:10067000ADF8100018208DF813000320154C8DF8EC
:10068000120004A92046FFF7ADFD2015ADF81000BB
:1006900004208DF8130004A92046FFF7A3FD4FF4B2
:1006A000E130009000200C21ADF80A10ADF80600F2
:1006B000094CADF80C00ADF80800ADF8040069462F
:1006C0002046FFF74DFF01212046FFF737FF06B018
:1006D00010BD0000000801400038014010B50121A4
:1006E0008CB00846FFF706FE0A2003901020029007
:1006F0001049002001910A90802105912021CDE927
:100700000701069004900C494FF440500B4C0091A7
:10071000099069462046FFF747FD01212046FFF773
:1007200038FD054801228021001FFFF711FF0CB0A2
:1007300010BD0000280000200438014044000240A1
:100740006007000800000020340000000E060008CA
:100750009407000834000020040400001E0600086E
:1007600000A24A040000000000000000010203048F
:10077000060708090204060800000000010203043D
:1007800001020304060708096E6968616F79610D4B
:040790000A0000005B
:0400000508000131BD
:00000001FF
