:020000040800F2
:1000000040040020490100089F0200083B0200084C
:100010009D0200089101000885060008000000000C
:10002000000000000000000000000000C503000800
:10003000930100080000000019030008D90400081B
:100040006301000863010008630100086301000800
:1000500063010008630100086301000863010008F0
:1000600063010008630100086301000863010008E0
:1000700063010008630100086301000863010008D0
:1000800063010008630100086301000863010008C0
:1000900063010008630100086301000863010008B0
:1000A00063010008630100086301000863010008A0
:1000B0006301000863010008630100086301000890
:1000C0006301000863010008630100086301000880
:1000D000630100084D050008630100086301000882
:1000E0006301000863010008630100086301000860
:1000F0006301000863010008630100086301000850
:10010000630100086301000863010008630100083F
:10011000630100086301000863010008630100082F
:10012000630100086301000863010008630100081F
:10013000DFF810D000F01AF800480047C1070008A7
:10014000AFF300804004002006488047064800477F
:10015000FEE7FEE7FEE7FEE7FEE7FEE7FEE7FEE777
:10016000FEE7FEE7FD04000831010008064C074DDC
:1001700006E0E06840F0010394E807009847103477
:10018000AC42F6D3FFF7D8FFC4080008E408000823
:10019000FEE77047F0B5CA78002502F00F03D206DB
:1001A00001D58A7813430A784FF00F0E12F0FF0F33
:1001B0004FF001021CD004680F8802FA05F63740A0
:1001C000B74211D14FEA850C0EFA0CF724EA070763
:1001D00003FA0CF43C43CF78282F02D0482F02D0EA
:1001E00002E0466100E006616D1C082DE4D3046066
:1001F0000C88FF2C1ED944685FF0000606F1080742
:1002000002FA07F50F882F40AF420FD14FEA860C54
:100210000EFA0CF7BC4303FA0CF73C43CF78282FB7
:1002200000D14561CF78482F00D10561761C082E9A
:10023000E4D34460F0BD01617047FEE738B50121A9
:10024000082000F06BF82020ADF8000010208DF899
:1002500003000320104C8DF8020069462046FFF78A
:1002600099FF0120ADF8000069462046FFF792FF94
:100270000220ADF8000069462046FFF78BFF2021E1
:100280002046FFF7D8FF01212046FFF7D4FF0221C7
:100290002046FFF7D0FF38BD000C0140FEE7704755
:1002A00070B50F23C47801780122F4B1144C24688E
:1002B000457804F4E064C4F5E064240AC4F104065B
:1002C000E3408478B5401C402C4301F1E021230138
:1002D00081F80034007800F01F018A404009800056
:1002E00000F1E020C0F8002170BD01F01F00824045
:1002F0004809800000F1E020C0F8802170BD0000B6
:100300000CED00E002490843024908607047000014
:100310000000FA050CED00E070470000044A0029D7
:10032000916901D0014300E0814391617047000071
:100330000010024030B51F494A6812F00C031E4AF3
:1003400003D0042B01D0082B21D002604A680F2370
:100350001A4C03EA1212A35C0268DA4042604B684E
:10036000072505EA1323E35C22FA03F383604B6855
:1003700005EAD323E35CDA40C2604968032303EA59
:100380009131231F595CB2FBF1F1016130BD4A6824
:100390004B6802F470124FF0020413F4803F04EB38
:1003A000924202D04B689B0301D5054B00E0024B03
:1003B0005A43CAE70010024000127A0018000020D9
:1003C00000093D00704700000CB50021264801914E
:1003D0000091026842F4803202604FF4A063026828
:1003E00002F400320092019A521C0192009A12B952
:1003F000019A9A42F3D10268920333D50121009108
:100400001A490A6842F010020A600A6822F00302E0
:100410000A600A6842F002020A604168416041686D
:100420004160416841F480614160416821F47C1180
:100430004160416841F4E8114160016841F0807118
:10044000016001688901FCD5416821F00301416028
:10045000416841F0020141604168C1F38101022914
:10046000FAD10CBD00910CBD0010024000200240EA
:10047000B0F1807F01D30120704720F07F414FF021
:10048000E020491E4161054AF02182F8141D002137
:100490008161072101610020704700000FE000E04A
:1004A00001B50C484FF47A710068B0FBF1F0FFF72A
:1004B000DFFF00204FF0E02103E00A69D203FCD502
:1004C000401C009A9042F8D3086920F001000861AE
:1004D00008BD00000000002070470000054810B56E
:1004E00000680549B0FBF1F0FFF7C2FF002800D01B
:1004F000FEE710BD00000020A08601000F4810B5E7
:10050000016841F00101016041680D4A11404160FC
:1005100001680C4A11400160016821F480210160EA
:10052000416821F4FE0141604FF41F018160FFF733
:100530004BFF05494FF00060086010BD00100240FD
:100540000000FFF8FFFFF6FE08ED00E010B5084CD4
:100550002021204600F018F8002808D0204600F09E
:1005600089F8C1B22046BDE8104000F087B810BD40
:10057000003801400029818902D041F4005101E096
:1005800021F40051818170470246002012880A42FE
:1005900000D00120704710B5C1F3421301F01F04D1
:1005A0000121A140012B07D0022B07D01430002AD3
:1005B000026805D00A4304E00C30F8E71030F6E793
:1005C0008A43026010BD000030B50446008A85B041
:1005D0000D464CF6FF710840E98801432182A1894C
:1005E0004EF6F3100140A8882A8910436A890A430D
:1005F0001043A081A08A4FF6FF410840A98901431A
:10060000A1826846FFF796FE1948844201D10398FB
:1006100000E00298A189090400EBC00101EB001081
:10062000296801D5490000E08900B0FBF1F064229F
:10063000B0FBF2F109010B096FF018056B4300EBF9
:100640008300A3891D044FF0320306D503EBC000DD
:10065000B0FBF2F000F0070005E003EB0010B0FB88
:10066000F2F000F00F000843208105B030BD00001B
:10067000003801408088C0F308007047C1F30801CA
:1006800081807047FEE700000FB4054B10B503A949
:10069000044A029800F017F810BC5DF814FB000043
:1006A0009D0700083C00002002E008C8121F08C196
:1006B000002AFAD170477047002001E001C1121FE3
:1006C000002AFBD170472DE9F84F9946924688469B
:1006D0000546002706E025280AD051464A4690479D
:1006E0006D1C7F1C28780028F5D13846BDE8F88FAE
:1006F000002315F8011F18462E2915D115F8011FE2
:1007000004232A290DD06FF02F022978A1F130049B
:10071000092C09D800EB800002EB400008446D1C56
:10072000F3E758F8040B6D1C2A78002ADDD0632A01
:1007300007D0732A0FD0104651464A4690477F1C77
:100740002AE018F8042B8DF8002000218DF8011004
:100750006E46012103E058F8046B4FF0FF315A0751
:100760004FF0000401D409E0641C84420BDA8C428F
:10077000FADB325D002AF7D105E0641C8C42FCDB19
:10078000305D0028F9D1274404E016F8010B5146EA
:100790004A469047641EF8D26D1CA3E770B5074D1A
:1007A0000446C1B22846FFF769FF80212846FFF7BB
:1007B000EBFE0028F9D0204670BD00000038014053
:1007C000FFF78CFEFFF73AFD00F024F808A0FFF7D2
:1007D0005BFF0D490DA0FFF757FF0D4C4FF47A75E5
:1007E000206880F0020020602846FFF759FEF7E7F6
:1007F000C4E3BAC320206E6968616F20BBB6D3AD75
:10080000CAB9D3C30D0A00002800002025730000D8
:100810000C0C014030B587B001210420FFF77EFDAC
:1008200001218803FFF77AFD4FF40070ADF8100046
:1008300018208DF813000320204C8DF8120004A915
:100840002046FFF7A7FC2015ADF8100004208DF816
:10085000130004A92046FFF79DFC4FF4E13000246B
:1008600000900C20ADF80A00154DADF80640ADF82B
:100870000C40ADF80840ADF8044069462846FFF743
:10088000A3FE01212846FFF775FE4FF4A060FFF795
:1008900039FD25208DF8140001208DF817008DF802
:1008A00015408DF8164005A8FFF7FAFC012240F22A
:1008B00025512846FFF76FFE07B030BD0008014004
:1008C00000380140E408000800000020400000005B
:1008D000A8060008240900084000002000040000C9
:1008E000B806000800A24A04000000000000000052
:1008F00001020304060708090204060800000000BC
:10090000010203040102030406070809C4E3BAC391
:10091000A3ACBBB6D3ADCAB9D3C30D0A0000000067
:0409200000000000D3
:0400000508000131BD
:00000001FF
