:020000040800F2
:1000000018040020490100089F0200083B02000874
:100010009D0200089101000845040008000000004E
:10002000000000000000000000000000BD02000809
:100030009301000800000000A1020008D10300089D
:100040006301000863010008630100086301000800
:1000500063010008630100086301000863010008F0
:1000600063010008630100086301000863010008E0
:1000700063010008630100086301000863010008D0
:1000800063010008630100086301000863010008C0
:1000900063010008630100086301000863010008B0
:1000A00063010008630100086301000863010008A0
:1000B0006301000863010008630100086301000890
:1000C0006301000863010008630100086301000880
:1000D0006301000863010008630100086301000870
:1000E0006301000863010008630100086301000860
:1000F0006301000863010008630100086301000850
:10010000630100086301000863010008630100083F
:10011000630100086301000863010008630100082F
:10012000630100086301000863010008630100081F
:10013000DFF810D000F01AF8004800476504000806
:10014000AFF30080180400200648804706480047A7
:10015000FEE7FEE7FEE7FEE7FEE7FEE7FEE7FEE777
:10016000FEE7FEE7F503000831010008064C074DE5
:1001700006E0E06840F0010394E807009847103477
:10018000AC42F6D3FFF7D8FF88040008A8040008A3
:10019000FEE77047F0B5CA78002502F00F03D206DB
:1001A00001D58A7813430A784FF00F0E12F0FF0F33
:1001B0004FF001021CD004680F8802FA05F63740A0
:1001C000B74211D14FEA850C0EFA0CF724EA070763
:1001D00003FA0CF43C43CF78282F02D0482F02D0EA
:1001E00002E0466100E006616D1C082DE4D3046066
:1001F0000C88FF2C1ED944685FF0000606F1080742
:1002000002FA07F50F882F40AF420FD14FEA860C54
:100210000EFA0CF7BC4303FA0CF73C43CF78282FB7
:1002200000D14561CF78482F00D10561761C082E9A
:10023000E4D34460F0BD01617047FEE738B50121A9
:10024000082000F02FF82020ADF8000010208DF8D5
:1002500003000320104C8DF8020069462046FFF78A
:1002600099FF0120ADF8000069462046FFF792FF94
:100270000220ADF8000069462046FFF78BFF2021E1
:100280002046FFF7D8FF01212046FFF7D4FF0221C7
:100290002046FFF7D0FF38BD000C0140FEE7704755
:1002A00070470000044A0029916901D0014300E031
:1002B00081439161704700000010024070470000C8
:1002C0000CB50021264801910091026842F4803269
:1002D00002604FF4A063026802F400320092019AB7
:1002E000521C0192009A12B9019A9A42F3D1026803
:1002F000920333D5012100911A490A6842F0100295
:100300000A600A6822F003020A600A6842F00202E8
:100310000A604168416041684160416841F4806120
:100320004160416821F47C114160416841F4E81169
:100330004160016841F08071016001688901FCD56C
:10034000416821F003014160416841F002014160D0
:100350004168C1F381010229FAD10CBD00910CBDA5
:100360000010024000200240B0F1807F01D3012044
:10037000704720F07F414FF0E020491E4161054A5F
:10038000F02182F8141D0021816107210161002004
:10039000704700000FE000E001B50C484FF47A719F
:1003A0000068B0FBF1F0FFF7DFFF00204FF0E02125
:1003B00003E00A69D203FCD5401C009A9042F8D3AE
:1003C000086920F00100086108BD0000000000205D
:1003D00070470000054810B500680549B0FBF1F012
:1003E000FFF7C2FF002800D0FEE710BD000000208C
:1003F000A08601000F4810B5016841F001010160BD
:1004000041680D4A1140416001680C4A1140016089
:10041000016821F480210160416821F4FE014160FE
:100420004FF41F018160FFF74BFF05494FF000605B
:10043000086010BD001002400000FFF8FFFFF6FE4C
:1004400008ED00E0FEE702E008C8121F08C1002A1C
:10045000FAD170477047002001E001C1121F002A45
:10046000FBD17047FFF7EAFEFFF7B4FF054C4FF4EE
:100470007A75206880F0020020602846FFF78CFF24
:10048000F7E700000C0C0140A80400080000002061
:100490001400000046040008BC04000814000020FA
:1004A000040400005604000800A24A0400000000F2
:0C04B00000000000010203040607080918
:0400000508000131BD
:00000001FF
